:1000000086C06FC49FC09EC09DC09CC09BC09AC04C
:1000100099C098C097C096C095C094C093C092C034
:1000200091C090C08FC005010906A1018501050797
:1000300095057501050819012905910295017503BA
:10004000910195067508150026FF0005071900297E
:10005000E78100C005010902A1010901A100850293
:100060000509190129031500250195037501810270
:1000700095017505810305010930093116018026B6
:10008000FF7F75109502810609381581257F750857
:1000900095018106C0C00600FF0901A10185031575
:1000A0000026FF00750895080900B20201C0090288
:1000B0002200010100803209040000010300000059
:1000C0000921010100012288000705810308000AB7
:1000D00012011001000000086D0412C200010102AB
:1000E0000001160355005300420020004400650043
:1000F000760069006300650012034C006F00670022
:100100006900740065006300680004030904112499
:100110001FBECFE5D4E0DEBFCDBF10E0A0E6B0E06B
:10012000EAE5FBE002C005900D92A436B107D9F7CD
:1001300011E0A4E6B0E001C01D92A73BB107E1F7D2
:10014000BDD009C55DCF30916D00332309F483C064
:10015000361708F4632F662309F476C0A82FB92F49
:1001600080916E0090E0FC01EC59FF4F8B599F4F3E
:10017000262F2150820F911D2D912193E817F90709
:10018000D9F780916E00860F80936E00361B3093F6
:100190006D00332309F058C0809165008093700092
:1001A0008091660080937100809167008093720057
:1001B000809168008093730080916900809374003F
:1001C00080916A0080937500809164008330E1F52E
:1001D00090916B00809161009817B1F590916C003F
:1001E00080916000981781F58091760090E00596E7
:1001F000803F91050CF54091780070917600E0E722
:10020000F0E0CF01069629E730E060E05191D90196
:10021000A40FB11D5C934F5F403F09F4462FE817D0
:10022000F907A1F740937800872F8A5F80937600C3
:1002300087E08093770008C0A99887E99AE301973F
:10024000F1F700C00000A99A81E090916D00992318
:1002500019F080E0089581E00895FC0180818076A6
:10026000803221F581818130A9F48281813041F48D
:1002700089E691E090939C0180939B0187E008952B
:100280008230B1F480E791E090939C0180939B01D0
:1002900087E00895893071F48281833069F489E0C0
:1002A00080936D0010926E008FEF089580E00895A6
:1002B00080E0089580E0089580E008952F923F92B5
:1002C0004F925F926F927F928F929F92AF92BF9266
:1002D000CF92DF92EF92FF920F931F93CF93DF9312
:1002E000CDB7DEB728970FB6F894DEBF0FBECDBFEF
:1002F000F8949B991BC080E090E028960FB6F89484
:10030000DEBF0FBECDBFDF91CF911F910F91FF9048
:10031000EF90DF90CF90BF90AF909F908F907F90A5
:100320006F905F904F903F902F9008952EE088E15E
:1003300090E00FB6F894A89581BD0FBE21BDABD259
:100340008D98959889EFA895E7EBFBE03197F1F749
:1003500000C000008150B9F78D9A959A10926A01F9
:1003600010926B0110926C0110926D0110926E014F
:1003700010926F0186E08093770178940F2EFAE750
:10038000EF2EF1E0FF2EF02D87010A5F1F4F0F2E99
:10039000FAE6AF2EF1E0BF2EF02D95012F5F3F4F13
:1003A0003E832D830F2EF0E76F2EF1E07F2EF02D90
:1003B000C301019698878F830F2EFBE7CF2EF1E0C4
:1003C000DF2EF02DF6013296FA83E9830F2EF1E746
:1003D0008F2EF1E09F2EF02D089481089108940152
:1003E0002E5F3F4F3C832B83A89517D180917600D9
:1003F0008823D1F380918C0184FFF6CF3091760071
:1004000080917801D70120E0E9E7F0E0E80FF11DE5
:1004100090819D938F5F803F09F4822FA017B107D1
:1004200099F797E090937701932F965090937600E9
:1004300080937801F7018081813061F5F601408178
:10044000443040F1483E30F510927701F50180814B
:10045000882309F0B1C007C0B9018191882389F4CC
:100460009093770102C060E070E089E691E0FC01C2
:10047000E60FF71F418321E02093690167E0A5D0D3
:1004800009C0922F9F5F2F5F3F4F2630310521F724
:1004900090937701F7018081823061F5F6019081B8
:1004A000943040F1983E30F510927701F50180814B
:1004B000981709F078C007C0B9018191981789F49D
:1004C0004093770102C060E070E089E691E0FC01B2
:1004D000E60FF71F118221E02093690167E075D0D4
:1004E00009C0422F4F5F2F5F3F4F2630310521F764
:1004F00040937701F70180818350843018F5F6012D
:100500008081E1E7F1E0808382E0F4018083F601FD
:1005100031802224E981FA8180819101280F311DE7
:10052000EB81FC8131832083F60153804424848154
:100530009201280F311DF401358324831682C401F2
:1005400067E043D0F70180818730A9F482E0F301AE
:100550008083F6018081EF81F8858083F301138227
:10056000128215821482E981FA818081F3018683E7
:10057000C30167E02AD0F7018081883009F034CFC9
:10058000F5011082ED81FE811082F5011282138245
:100590001482158286E08093770121E02293CF01B7
:1005A00067E013D021CF81E080937701EBE6F1E0A3
:1005B00021E030E041E080CF81E080937701EBE6FD
:1005C000F1E021E030E091E047CF0F931F93CF930C
:1005D000C62F20918C0124FF07C030918D0128E89F
:1005E000232720938D0103C02AE520938C01E82F57
:1005F000F92F8C2FAEE8B1E091919D938150E1F7F6
:100600000EE811E0C8016C2F68D1CC5FF801329779
:10061000C083CF911F910F910895CF93DF93609185
:100620009D0163500AF4CFC080919A01CCE0D0E0E4
:10063000C81BD109CF55DE4F809199018D3209F049
:10064000B0C0683009F0BDC083EC809381018AE5B9
:1006500080936200109280018881807619F0CE012B
:10066000FCDD8BC09A8110928A018981882331F444
:1006700010928B012AE831E082E07BC0853031F4B2
:1006800090939E012AE831E080E073C0863009F043
:1006900050C08B81813041F480ED90E090939C01BB
:1006A00080939B0182E141C0823041F48EEA90E068
:1006B00090939C0180939B0182E237C08330F1F4D8
:1006C000992341F48AE091E090939C0180939B01EF
:1006D00084E02BC0913041F488EF90E090939C012E
:1006E00080939B0182E121C09230E1F482EE90E0A0
:1006F00090939C0180939B0186E117C0813241F465
:1007000080EC90E090939C0180939B0189E00DC068
:10071000823251F486E290E090939C0180939B0199
:1007200088E803C080E001C080E090E490938001FD
:1007300024C0883099F0893031F49093A0012AE8E0
:1007400031E080E016C08A3069F08B3079F48BE4B8
:1007500080938D012AE831E080E00BC020EA31E08F
:1007600081E007C02AE831E081E003C02AE831E0F7
:1007700080E030939C0120939B018F3F41F498814E
:1007800099230CF48E8190E89093800107C09F819B
:10079000992321F49E81981708F4892F8093630090
:1007A00010C080918001882364F4CE01CCDC8F3F9F
:1007B00021F48EE18093620004C0882311F010922E
:1007C000630010929D018091620084FF4DC0809172
:1007D00063008F3F09F448C0C82F893008F0C8E093
:1007E0008C1B809363009091810188E88927809316
:1007F0008101CC2309F446C080919B0190919C011A
:100800002091800126FF11C0FC012C2FA2E8B1E04D
:1008100034913D9331962150D9F72C2F215030E05F
:100820002F5F3F4F820F931F0FC0DC012C2FE2E898
:10083000F1E03D9131932150E1F72C2F215030E030
:100840002F5F3F4F820F931F90939C0180939B01DA
:1008500082E891E06C2F41D0CC5FCC3018F48FEF60
:1008600080936300C093620086B3837089F483E150
:1008700096B3937069F48150D9F710929E0110924B
:10088000980106C082E891E06C2F27D0CC5FE7CFBB
:10089000DF91CF91089585B7826085BF8BB7806463
:1008A0008BBF8BE480938D018AE580938C01089542
:1008B000A82FB92F80E090E041E050EA609530E049
:1008C00009C02D9182279795879510F08427952749
:1008D000305EC8F36F5FA8F30895EADF8D939D93B0
:1008E0000895CF93CFB7CF93C395B09BE9F7B09B53
:1008F00009C0B09B07C0B09B05C0B09B03C0B09BB4
:1009000001C0A3C0DF93C0919A01DD27CF55DE4F10
:10091000B09B02C0DF91EBCF2F930F931F9306B3D1
:100920002FEF00FB20F94F933F9316B34FEF0127B2
:1009300000FB21F93BE031C04E7F012F16B321604F
:1009400028C0102F4D7F2260000006B329C04B7FC6
:100950002460012F000016B32BC016B3477F286018
:100960002AC04F7E06B320612CC04F7D16B3206293
:100970002FC04F7B06B3206432C0422706B3499391
:100980004FEF0000102710FB20F916B31370C9F1C8
:10099000297F91F2012700FB21F906B3237F89F219
:1009A000315058F1102710FB22F916B3277E79F247
:1009B000012700FB23F92F7C81F206B3102710FBDF
:1009C00024F92F7971F200C016B3012700FB25F935
:1009D0002F7359F200C006B3102710FB26F92230FE
:1009E00040F200C016B3012700FB27F9243028F697
:1009F0004F77206816B30000F9CF10E41ABF002724
:100A000019C03B503195C31BD04010E41ABF088178
:100A1000033CF9F00B34E9F0209198011981110F92
:100A20001213EDCF4A81441F093641F10D3211F006
:100A3000013E29F700939F013F914F911F910F9124
:100A40002F91DF91CAB7C6FD4FCFCF91CFBFCF91C6
:100A5000189520919F01222379F310919D01112374
:100A600069F534306AF130939D012093990110911A
:100A70009A013BE0311B30939A0122C000919D0105
:100A80000130E4F40AE54F7049F43091620034FD1E
:100A900019C000936200C1E8D1E018C030918C0108
:100AA00034FD10C000938C01CDE8D1E00FC0279534
:100AB000A8F45150A9F4220F0000F9CF4AE503C071
:100AC00042ED01C0432FC4E1D0E032E017B3136020
:100AD000C09A17BB08B320E413E05F93012756E0E8
:100AE00008BB279520F4515021F4220FF9CF01279C
:100AF00056E000003B5A08BBD0F2279528F451502D
:100B000029F4220F0000F9CF012756E0279508BBF2
:100B100020F4515021F4220FF9CF012756E02991FA
:100B2000332308BB21F60C7F10919E01110FC65193
:100B3000D04008BB11F01093980110E41ABF016077
:100B400017B31C7F402F4C7F5F9100C000C008BBD3
:0A0B500017BB48BB71CFF894FFCF2C
:040B5A000C0C5AFF26
:00000001FF
